:020000040800F2
:10000000B806002089010008711300086F1200086B
:100010006D1300088F0200081F1500080000000083
:10002000000000000000000000000000A113000814
:10003000930200080000000075130008A3130008D5
:10004000A3010008A3010008A3010008A301000800
:10005000A3010008A3010008A3010008A3010008F0
:10006000A3010008A3010008A3010008A3010008E0
:10007000A3010008A3010008A3010008A3010008D0
:10008000A3010008A3010008A3010008A3010008C0
:10009000A3010008A3010008A3010008A3010008B0
:1000A000A3010008A3010008A3010008A3010008A0
:1000B000A301000815140008A3010008A30100080B
:1000C000A3010008A3010008A3010008A301000880
:1000D000A3010008A3010008A3010008A301000870
:1000E000A3010008A3010008A301000800F002F822
:1000F00000F03AF80AA090E8000C82448344AAF188
:100100000107DA4501D100F02FF8AFF2090EBAE885
:100110000F0013F0010F18BFFB1A43F0010318473B
:1001200088140000A8140000103A24BF78C878C1D1
:10013000FAD8520724BF30C830C144BF04680C60ED
:10014000704700000023002400250026103A28BF35
:1001500078C1FBD8520728BF30C148BF0B60704739
:100160001FB51FBD10B510BD00F058F81146FFF7C0
:10017000F7FF01F0F3F900F076F803B4FFF7F2FFB0
:1001800003BC00F07DF8000009488047094800479B
:10019000FEE7FEE7FEE7FEE7FEE7FEE7FEE7FEE737
:1001A000FEE7FEE704480549054A064B7047000094
:1001B00011140008ED000008B8000020B806002067
:1001C000B8020020B80200204FF0000200B513462C
:1001D00094469646203922BFA0E80C50A0E80C5067
:1001E000B1F12001BFF4F7AF090728BFA0E80C5018
:1001F00048BF0CC05DF804EB890028BF40F8042B11
:1002000008BF704748BF20F8022B11F0804F18BF7D
:1002100000F8012B7047704770477047754600F033
:100220002BF8AE4605006946534620F00700854688
:1002300018B020B5FFF7B6FFBDE820404FF000062C
:100240004FF000074FF000084FF0000B21F00701BE
:10025000AC46ACE8C009ACE8C009ACE8C009ACE801
:10026000C0098D46704710B50446AFF300802046A4
:10027000BDE81040FFF781BF0048704758000020DC
:1002800001491820ABBEFEE726000200704700BF00
:10029000FEE7704772B600BFFEE700002DE9F847A1
:1002A0000346002294466EE14FF0010808FA02F47A
:1002B000D1F8008008EA0400A0427DD1DFF8DCA27A
:1002C000D1F80480A8EB0A09D0453AD014DCB8F183
:1002D000030F50D009DCB8F1000F31D0B8F1010F95
:1002E0001CD0B8F1020F49D120E0B8F1110F18D09D
:1002F000B8F1120F42D11EE0B9F5881F25D006DCF7
:10030000B9F5803F20D0B9F5801F37D11AE0B9F593
:10031000001F18D0B9F5041F30D117E0D1F80CC078
:100320002DE0D1F80C8008F1040C28E0D1F80C8005
:1003300008F1080C23E0D1F80C8008F10C0C1EE049
:1003400000BF00BF00BF00BF00BF00BFD1F80880E2
:10035000B8F1000F02D14FF0040C0BE0D1F8088087
:10036000B8F1010F03D14FF0080C1C6102E04FF00F
:10037000080C5C6103E04FF0000C00E000BF00BF20
:10038000FF2801D8984601E003F104084646FF28FB
:1003900002D84FEA820803E0A2F108084FEA880871
:1003A0004746D6F800804FF00F0909FA07F928EA06
:1003B00009080CFA07F900E088E048EA0908C6F8DD
:1003C0000080D1F8048008F08058B8F1805F7DD1BA
:1003D00000BFDFF8CC81D8F8188048F00108DFF8BA
:1003E000C091C9F81880C846D8F8188008F00108EC
:1003F000CDF8008000BF00BF4FEAB9384FEA92093C
:1004000058F829504FEA82784FEA18794FF00F08D0
:1004100008FA09F825EA0805DFF88881434502D182
:100420004FF0000816E0DFF88081434502D14FF01D
:1004300001080FE0DFF87481434502D14FF0020854
:1004400008E0DFF86C81434502D14FF0030801E07A
:100450004FF004084FEA82794FEA197908FA09F84F
:1004600048EA0505DFF84C814FEA920948F829501F
:10047000D1F8048008F48018B8F5801F0AD1DFF89D
:100480003881D8F8008048EA0008DFF82C91C9F8D4
:10049000008009E0DFF82081D8F8008028EA000811
:1004A000DFF81491C9F80080D1F8048008F400182E
:1004B000B8F5001F10D1DFF8008108F10408D8F862
:1004C000008048EA0008DFF8F09000E05AE009F107
:1004D0000409C9F800800DE0DFF8DC8008F10408A9
:1004E000D8F8008028EA0008DFF8CC9009F1040968
:1004F000C9F80080D1F8048008F40038B8F5003F4E
:100500000ED1DFF8B480A8F10408D8F8008048EADA
:100510000008DFF8A490A9F10409C9F800800DE0F3
:10052000DFF89480A8F10408D8F8008028EA0008D1
:10053000DFF88490A9F10409C9F80080D1F804809B
:1005400008F48038B8F5803F0ED1DFF86C80A8F150
:100550000808D8F8008048EA0008DFF85C90A9F1A4
:100560000809C9F800800DE0DFF84C80A8F1080800
:10057000D8F8008028EA0008DFF83C90A9F10809C3
:10058000C9F80080521CD1F8008028FA02F8B8F1AE
:10059000000F7FF489AEBDE8F8870000000011105D
:1005A0000010024000080140000C01400010014012
:1005B00000140140080001400804014010B5C26861
:1005C00021EA020302EA010443EA0443036110BD85
:1005D0000AB1016101E00B04036170470148006842
:1005E00070470000000000200348006803490978B4
:1005F00008440149086070470000002008000020FE
:1006000010B50848006840F0100006490860032053
:1006100000F0A8F80F2000F007F800F02BF80020F9
:1006200010BD00000020024070B504460E4800785E
:100630004FF47A71B1FBF0F00C490968B1FBF0F5A9
:10064000284600F0D3FB08B1012070BD102C07D262
:1006500000222146501E00F047F80548046001E0E2
:100660000120F2E70020F0E7080000200C00002045
:100670000400002008B500BF1148806940F0010067
:100680000F4988610846806900F00100009000BFB2
:1006900000BF00BF0846C06940F08050C8610846EE
:1006A000C06900F08050009000BF00BF00BF054946
:1006B000486820F0E06040F00070486000BF08BD6E
:1006C000001002400000014001460846002809DBF6
:1006D00000F01F0301229A4043099B0003F1E0232D
:1006E000C3F8002100BF70472DE9F05F80460D463A
:1006F0001646002700F016FF074639462A463346BD
:1007000001F00700C0F1070ABAF1040F02D94FF057
:10071000040A01E0C0F1070AD14600F1040ABAF167
:10072000070F02D24FF0000A01E0A0F1030AD446FD
:100730004FF0010A0AFA09FAAAF1010A0AEA020AC2
:100740000AFA0CFA4FF0010B0BFA0CFBABF1010BA0
:100750000BEA030B4AEA0B042146404600F0EAFE8E
:10076000BDE8F09F00BF00F00702064B19684FF686
:10077000FF031940044B0B4343EA0221014B19606C
:1007800000BF70470CED00E00000FA0570B50446AC
:100790000D460CB9012070BD5A48006800F00700F2
:1007A000A8420ED25748006820F007002843554958
:1007B00008600846006800F00700A84201D0012048
:1007C000E9E7207800F0020002281DD1207800F02F
:1007D0000400042805D14C48406840F4E0604A49D0
:1007E0004860207800F00800082805D14648406895
:1007F00040F46050444948604348406820F0F000AD
:10080000A168084340494860207800F0010078B3AF
:100810006068012806D13C48006800F4003090B9B7
:100820000120B8E76068022806D13748006800F068
:10083000007040B90120AEE73348006800F00200C4
:1008400008B90120A7E73048406820F0030061683C
:1008500008432D494860FFF7C1FE064609E0FFF74F
:10086000BDFE801B41F28831884202D9032092E705
:1008700007E02548406800F00C006168B0EB810F8C
:10088000EDD12048006800F00700A8420ED91D48AD
:10089000006820F0070028431A49086008460068ED
:1008A00000F00700A84201D0012074E7207800F092
:1008B0000400042807D11448406820F4E060E1688F
:1008C000084311494860207800F00800082808D142
:1008D0000D48406820F46050216940EAC1000A498F
:1008E000486000F019F808494968C1F30311074A44
:1008F000515CC8400649086006480068FFF794FE4E
:10090000002048E700200240001002408E15000839
:100910000C0000200400002070B5002100220024FB
:1009200000230020134D696801F00C05F5B1042D7A
:1009300002D0082D19D101E00F4819E00F4DC1F385
:100940008346AB5D01F4803555B10A4D6D68C5F342
:1009500040450B4E725D084D5D43B5FBF2F402E07D
:10096000084D03FB05F4204602E000BF024800BF2B
:1009700000BF70BD0010024000127A007C15000814
:100980008C15000800093D00F8B504460CB901209B
:10099000F8BD207800F00100002878D0F8484068C1
:1009A00000F00C0004280CD0F548406800F00C0062
:1009B000082811D1F248406800F48030B0F5803F3B
:1009C0000AD1EF48006800F4003000285FD060686A
:1009D00000285CD10120DBE700BF6068B0F5803FF4
:1009E00006D1E748006840F48030E549086028E017
:1009F000606858B9E248006820F48030E049086037
:100A00000846006820F4802008601AE06068B0F5AD
:100A1000A02F0BD1DA48006840F48020D849086044
:100A20000846006840F4803008600AE0D448006856
:100A300020F48030D24908600846006820F4802005
:100A4000086000BF606888B1FFF7C8FD054606E092
:100A5000FFF7C4FD401B642801D9032098E7C8486C
:100A6000006800F400300028F2D010E0FFF7B6FD77
:100A7000054606E0FFF7B2FD401B642801D90320BC
:100A800086E7BF48006800F400300028F2D12078E3
:100A900000F00200022857D1B948406800F00C006D
:100AA00050B1B748406800F00C00082818D1B4488D
:100AB000406800F4803098B9B148006800F0020046
:100AC00020B12069012801D0012061E7AC4800680D
:100AD00020F0F800616940EAC100A949086033E0EC
:100AE0002069E8B10120A7490860FFF777FD0546B6
:100AF00006E0FFF773FD401B022801D9032047E7FA
:100B00009F48006800F002000028F2D09C4800686E
:100B100020F0F800616940EAC1009949086013E0DB
:100B2000002098490860FFF759FD054606E0FFF7E9
:100B300055FD401B022801D9032029E79048006891
:100B400000F002000028F2D1207800F00800082808
:100B50002DD1A069B8B101208B490860FFF73EFD97
:100B6000054606E0FFF73AFD401B022801D90320A5
:100B70000EE78348406A00F002000028F2D001200E
:100B800000F0FAFB13E000207F490860FFF726FD24
:100B9000054606E0FFF722FD401B022801D903208D
:100BA000F6E67748406A00F002000028F2D120788B
:100BB00000F00400042873D100277148C06900F0D8
:100BC000805070B900BF6E48C06940F080506C49D9
:100BD000C8610846C06900F08050009000BF00BFA7
:100BE00001276A48006800F48070B0B9674800685F
:100BF00040F4807065490860FFF7F0FC054606E0A8
:100C0000FFF7ECFC401B642801D90320C0E65F48D5
:100C1000006800F480700028F2D000BFE06801286E
:100C200006D15748006A40F001005549086227E0A4
:100C3000E06858B95248006A20F001005049086243
:100C40000846006A20F00400086219E0E068052800
:100C50000BD14B48006A40F004004949086208463D
:100C6000006A40F0010008620AE04548006A20F08E
:100C70000100434908620846006A20F00400086247
:100C800000BFE068A0B1FFF7A9FC054609E0FFF747
:100C9000A5FC401B41F28831884202D9032077E647
:100CA00022E03748006A00F002000028EFD012E08E
:100CB000FFF794FC054608E0FFF790FC401B41F26B
:100CC0008831884201D9032062E62D48006A00F08D
:100CD00002000028F0D1012F05D12948C06920F079
:100CE00080502749C86100BFE069C8B32448406804
:100CF00000F00C00082860D0E069022848D10020EC
:100D000020490866FFF76AFC054606E0FFF766FC27
:100D1000401B022801D903203AE61948006800F078
:100D200000700028F2D1206AB0F5803F07D1144846
:100D3000406820F40030A168084311494860D4E9B4
:100D4000080108430E49496821F4741108430C490D
:100D5000486001200B490866FFF740FC054607E0A4
:100D60003DE0FFF73BFC401B022801D903200FE6C2
:100D70000348006800F000700028F2D02FE0000067
:100D800000100240000042428004424200700040D5
:100D9000002014490866FFF721FC054606E0FFF72E
:100DA0001DFC401B022801D90320F1E50E48006814
:100DB00000F000700028F2D111E0E069012800D1B4
:100DC000E6E50948466806F48031206A814204D18C
:100DD00006F47011606A814201D00120D8E500203C
:100DE000D6E50000000042420010024070B5044603
:100DF0002546681EB0F1807F01D301200FE0681EF8
:100E00004FF0E02148610F214FF0FF3000F092FBDE
:100E100000204FF0E021886107200861002070BDAC
:100E20007047704730B502460B4600BF92F83C0051
:100E3000012801D1022030BD012082F83C0000BF12
:100E4000022082F83D00106844681068816824F030
:100E500070041868044310684460104D1068A8427C
:100E60000BD01068B0F1804F07D00D4D1068A8422C
:100E700003D00C4D1068A84205D121F080015868BC
:100E8000014310688160012082F83D0000BF00200E
:100E900082F83C0000BF00BFCDE70000002C0140FD
:100EA000000400400008004010B504460CB90120C1
:100EB00010BD94F83D0028B9002084F83C0020467D
:100EC00000F026F8022084F83D00211D206800F083
:100ED000A9FA012084F8460000BF84F83E000121F1
:100EE0003F200155402001554120015500BF00BF62
:100EF000012084F84200432001554420015545203B
:100F0000015500BF012084F83D000020D0E700001B
:100F100038B504460D492068884215D100BF0C48F9
:100F2000C06940F002000A49C8610846C06900F083
:100F30000200009000BF00BF002211461D20FFF7F5
:100F4000D3FB1D20FFF7C0FB38BD000000040040AC
:100F500000100240014691F83D00012801D0012017
:100F60007047022081F83D000868C06840F0010029
:100F70000B68D860124B086898420BD00868B0F133
:100F8000804F07D00F4B0868984203D00E4B08687B
:100F900098420CD10868806800F00702062A0CD03D
:100FA0000868006840F001000B68186005E00868F8
:100FB000006840F001000B6818600020D0E70000D6
:100FC000002C014000040040000800402DE9F041E1
:100FD00004460D46002700BF94F83C00012802D1CA
:100FE0000220BDE8F081012084F83C0000BF02200F
:100FF00084F83D002068866826F0770626F47F4650
:10100000206886602868502833D00CDC202850D017
:1010100004DC00284BD0102851D149E0302849D0B9
:1010200040284CD139E060282DD0702807D0B0F589
:10103000805F03D0B0F5005F41D10DE041E0D5E91C
:1010400002136A68206800F02FFA2068866846F06C
:1010500077062068866034E0D5E902136A68206864
:1010600000F022FA2068806840F48040216888609F
:1010700027E0EA686968206800F02AFA50212068B1
:1010800000F01DFA1DE0EA686968206800F033FA94
:101090006021206800F013FA13E0EA6869682068AC
:1010A00000F016FA4021206800F009FA09E000BFBC
:1010B00000BF00BF2968206800F001FA01E00127A5
:1010C00000BF00BF012084F83D0000BF002084F86D
:1010D0003C0000BF384684E7704770B5044620687E
:1010E000C5682068066906F00200022819D105F0DB
:1010F0000200022815D1401F2168086101202077D5
:101100002068806900F0030018B12046FFF7E4FF73
:1011100005E0204600F097F8204600F095F8002002
:10112000207706F00400042819D105F004000428F3
:1011300015D1C043216808610220207720688069AA
:1011400000F4407018B12046FFF7C6FF05E02046C6
:1011500000F079F8204600F077F80020207706F0BC
:101160000800082819D105F00800082815D1C04347
:1011700021680861042020772068C06900F003001E
:1011800018B12046FFF7A8FF05E0204600F05BF805
:10119000204600F059F80020207706F010001028B3
:1011A00019D105F01000102815D1C043216808613D
:1011B000082020772068C06900F4407018B12046EC
:1011C000FFF78AFF05E0204600F03DF8204600F0DA
:1011D0003BF80020207706F0010048B105F001003F
:1011E00030B16FF0010021680861204600F02EF850
:1011F00006F08000802809D105F08000802805D104
:10120000C043216808612046FFF70AFE06F040004F
:10121000402809D105F04000402805D1C04321688D
:101220000861204600F022F806F02000202809D1AD
:1012300005F02000202805D1C04321680861204620
:10124000FFF7EFFD70BD70477047000010B5044612
:101250000448844204D14FF400510348FFF7AEF92B
:1012600010BD00001000002000100140704700BFBA
:10127000FEE7000000B585B00020019002900390C9
:10128000049000BF1C48806940F010001A49886132
:101290000846806900F01000009000BF00BF00BF4A
:1012A0000846806940F0200088610846806900F0A7
:1012B0002000009000BF00BF00BF0846806940F0DA
:1012C000040088610846806900F00400009000BFB7
:1012D00000BF012251030948FFF77AF94FF400508B
:1012E00001900120029003900220049001A903487C
:1012F000FEF7D4FF05B000BD001002400010014011
:1013000000B587B0002003900490059006900190EE
:101310000290144814490860472048600021124890
:1013200081604FF6FF71C160002101618161FFF7AB
:10133000BBFD08B1FEF7AEFF4FF48050039003A948
:101340000948FFF743FE08B1FEF7A4FF0020019013
:10135000029001A90448FFF765FD08B1FEF79AFF66
:1013600007B000BD000400401000002000BFFEE7F1
:1013700000BFFEE77047000008B508490968C908C2
:101380004FF47A72B1FBF2F14143009100BF00BF0C
:1013900000994A1E00920029F9D108BD0C000020D6
:1013A000704710B5FFF720F910BD00B58FB02821A8
:1013B00005A8FEF709FF14216846FEF705FF012086
:1013C000059000040690002007900120099002205B
:1013D0000C90C1030D914FF4E0110E9105A8FFF799
:1013E000D3FA08B1FEF756FF0F20009002200190BB
:1013F000002002904FF480600390002004900221AE
:101400006846FFF7C3F908B1FEF744FF0FB000BD0F
:101410007047000010B50248FFF75FFE10BD0000E6
:101420001000002010B502681C4B984208D0B0F1A3
:10143000804F05D01A4B984202D01A4B984203D1E4
:1014400022F070024B681A43144B984208D0B0F156
:10145000804F05D0124B984202D0124B984203D1D4
:1014600022F44072CB681A4322F080034C6943EAAD
:10147000040202608B68C3620B688362074B984268
:1014800001D10B69036301234361036903F0010385
:101490001BB1036923F00103036110BD002C01405F
:1014A000000400400008004030B50C46816821F47B
:1014B0007F4142EA032525432943816030BD0A4626
:1014C000816821F0700142F0070319438160704781
:1014D00030B50B461446026A056A25F0010505621F
:1014E000816921F0F00141EA041122F00A021A4355
:1014F0008161026230BD30B50B461446026A056A4E
:1015000025F010050562816921F4704141EA04313A
:1015100022F0A00242EA03128161026230BD00BFE4
:10152000FEE7000002480068C0F302207047000098
:101530000CED00E010B5002804DB0A07130E054A85
:10154000135406E00A07140E034A00F00F031B1F92
:10155000D45410BD00E400E018ED00E0FFF750F8AF
:10156000FFF723FFFFF786FEFFF7CAFE0248FFF7EB
:10157000F1FC00BFFEE7000010000020020304059C
:10158000060708090A0B0C0D0E0F101001020000CF
:101590000000000000000102030406070809000023
:1015A0000000010203040000C8150008000000202C
:1015B0001000000028010008D815000810000020C5
:1015C000A806000044010008000000001000000010
:0815D0000100000000127A0086
:04000005080000ED02
:00000001FF
